{
  "_format": "hh-sol-artifact-1",
  "contractName": "BenjaminBit",
  "sourceName": "contracts/Token.sol",
  "abi": [
    {
      "inputs": [
        {
          "internalType": "string",
          "name": "_initBaseURI",
          "type": "string"
        }
      ],
      "stateMutability": "nonpayable",
      "type": "constructor"
    },
    {
      "anonymous": false,
      "inputs": [
        {
          "indexed": true,
          "internalType": "address",
          "name": "owner",
          "type": "address"
        },
        {
          "indexed": true,
          "internalType": "address",
          "name": "approved",
          "type": "address"
        },
        {
          "indexed": true,
          "internalType": "uint256",
          "name": "tokenId",
          "type": "uint256"
        }
      ],
      "name": "Approval",
      "type": "event"
    },
    {
      "anonymous": false,
      "inputs": [
        {
          "indexed": true,
          "internalType": "address",
          "name": "owner",
          "type": "address"
        },
        {
          "indexed": true,
          "internalType": "address",
          "name": "operator",
          "type": "address"
        },
        {
          "indexed": false,
          "internalType": "bool",
          "name": "approved",
          "type": "bool"
        }
      ],
      "name": "ApprovalForAll",
      "type": "event"
    },
    {
      "anonymous": false,
      "inputs": [
        {
          "indexed": true,
          "internalType": "address",
          "name": "previousOwner",
          "type": "address"
        },
        {
          "indexed": true,
          "internalType": "address",
          "name": "newOwner",
          "type": "address"
        }
      ],
      "name": "OwnershipTransferred",
      "type": "event"
    },
    {
      "anonymous": false,
      "inputs": [
        {
          "indexed": true,
          "internalType": "address",
          "name": "from",
          "type": "address"
        },
        {
          "indexed": true,
          "internalType": "address",
          "name": "to",
          "type": "address"
        },
        {
          "indexed": true,
          "internalType": "uint256",
          "name": "tokenId",
          "type": "uint256"
        }
      ],
      "name": "Transfer",
      "type": "event"
    },
    {
      "inputs": [
        {
          "internalType": "address",
          "name": "to",
          "type": "address"
        },
        {
          "internalType": "uint256",
          "name": "tokenId",
          "type": "uint256"
        }
      ],
      "name": "approve",
      "outputs": [],
      "stateMutability": "nonpayable",
      "type": "function"
    },
    {
      "inputs": [
        {
          "internalType": "address",
          "name": "owner",
          "type": "address"
        }
      ],
      "name": "balanceOf",
      "outputs": [
        {
          "internalType": "uint256",
          "name": "",
          "type": "uint256"
        }
      ],
      "stateMutability": "view",
      "type": "function"
    },
    {
      "inputs": [],
      "name": "baseExtension",
      "outputs": [
        {
          "internalType": "string",
          "name": "",
          "type": "string"
        }
      ],
      "stateMutability": "view",
      "type": "function"
    },
    {
      "inputs": [],
      "name": "baseURI",
      "outputs": [
        {
          "internalType": "string",
          "name": "",
          "type": "string"
        }
      ],
      "stateMutability": "view",
      "type": "function"
    },
    {
      "inputs": [
        {
          "internalType": "uint256",
          "name": "tokenId",
          "type": "uint256"
        }
      ],
      "name": "getApproved",
      "outputs": [
        {
          "internalType": "address",
          "name": "",
          "type": "address"
        }
      ],
      "stateMutability": "view",
      "type": "function"
    },
    {
      "inputs": [
        {
          "internalType": "address",
          "name": "owner",
          "type": "address"
        },
        {
          "internalType": "address",
          "name": "operator",
          "type": "address"
        }
      ],
      "name": "isApprovedForAll",
      "outputs": [
        {
          "internalType": "bool",
          "name": "",
          "type": "bool"
        }
      ],
      "stateMutability": "view",
      "type": "function"
    },
    {
      "inputs": [],
      "name": "maxMintAmount",
      "outputs": [
        {
          "internalType": "uint256",
          "name": "",
          "type": "uint256"
        }
      ],
      "stateMutability": "view",
      "type": "function"
    },
    {
      "inputs": [],
      "name": "maxSupply",
      "outputs": [
        {
          "internalType": "uint256",
          "name": "",
          "type": "uint256"
        }
      ],
      "stateMutability": "view",
      "type": "function"
    },
    {
      "inputs": [],
      "name": "name",
      "outputs": [
        {
          "internalType": "string",
          "name": "",
          "type": "string"
        }
      ],
      "stateMutability": "view",
      "type": "function"
    },
    {
      "inputs": [],
      "name": "owner",
      "outputs": [
        {
          "internalType": "address",
          "name": "",
          "type": "address"
        }
      ],
      "stateMutability": "view",
      "type": "function"
    },
    {
      "inputs": [
        {
          "internalType": "uint256",
          "name": "tokenId",
          "type": "uint256"
        }
      ],
      "name": "ownerOf",
      "outputs": [
        {
          "internalType": "address",
          "name": "",
          "type": "address"
        }
      ],
      "stateMutability": "view",
      "type": "function"
    },
    {
      "inputs": [],
      "name": "renounceOwnership",
      "outputs": [],
      "stateMutability": "nonpayable",
      "type": "function"
    },
    {
      "inputs": [
        {
          "internalType": "address",
          "name": "to",
          "type": "address"
        },
        {
          "internalType": "uint256",
          "name": "_mintAmount",
          "type": "uint256"
        }
      ],
      "name": "safeMint",
      "outputs": [],
      "stateMutability": "nonpayable",
      "type": "function"
    },
    {
      "inputs": [
        {
          "internalType": "address",
          "name": "from",
          "type": "address"
        },
        {
          "internalType": "address",
          "name": "to",
          "type": "address"
        },
        {
          "internalType": "uint256",
          "name": "tokenId",
          "type": "uint256"
        }
      ],
      "name": "safeTransferFrom",
      "outputs": [],
      "stateMutability": "nonpayable",
      "type": "function"
    },
    {
      "inputs": [
        {
          "internalType": "address",
          "name": "from",
          "type": "address"
        },
        {
          "internalType": "address",
          "name": "to",
          "type": "address"
        },
        {
          "internalType": "uint256",
          "name": "tokenId",
          "type": "uint256"
        },
        {
          "internalType": "bytes",
          "name": "_data",
          "type": "bytes"
        }
      ],
      "name": "safeTransferFrom",
      "outputs": [],
      "stateMutability": "nonpayable",
      "type": "function"
    },
    {
      "inputs": [
        {
          "internalType": "address",
          "name": "operator",
          "type": "address"
        },
        {
          "internalType": "bool",
          "name": "approved",
          "type": "bool"
        }
      ],
      "name": "setApprovalForAll",
      "outputs": [],
      "stateMutability": "nonpayable",
      "type": "function"
    },
    {
      "inputs": [
        {
          "internalType": "string",
          "name": "_newBaseURI",
          "type": "string"
        }
      ],
      "name": "setBaseURI",
      "outputs": [],
      "stateMutability": "nonpayable",
      "type": "function"
    },
    {
      "inputs": [
        {
          "internalType": "bytes4",
          "name": "interfaceId",
          "type": "bytes4"
        }
      ],
      "name": "supportsInterface",
      "outputs": [
        {
          "internalType": "bool",
          "name": "",
          "type": "bool"
        }
      ],
      "stateMutability": "view",
      "type": "function"
    },
    {
      "inputs": [],
      "name": "symbol",
      "outputs": [
        {
          "internalType": "string",
          "name": "",
          "type": "string"
        }
      ],
      "stateMutability": "view",
      "type": "function"
    },
    {
      "inputs": [
        {
          "internalType": "uint256",
          "name": "index",
          "type": "uint256"
        }
      ],
      "name": "tokenByIndex",
      "outputs": [
        {
          "internalType": "uint256",
          "name": "",
          "type": "uint256"
        }
      ],
      "stateMutability": "view",
      "type": "function"
    },
    {
      "inputs": [
        {
          "internalType": "address",
          "name": "owner",
          "type": "address"
        },
        {
          "internalType": "uint256",
          "name": "index",
          "type": "uint256"
        }
      ],
      "name": "tokenOfOwnerByIndex",
      "outputs": [
        {
          "internalType": "uint256",
          "name": "",
          "type": "uint256"
        }
      ],
      "stateMutability": "view",
      "type": "function"
    },
    {
      "inputs": [
        {
          "internalType": "uint256",
          "name": "tokenId",
          "type": "uint256"
        }
      ],
      "name": "tokenURI",
      "outputs": [
        {
          "internalType": "string",
          "name": "",
          "type": "string"
        }
      ],
      "stateMutability": "view",
      "type": "function"
    },
    {
      "inputs": [],
      "name": "totalSupply",
      "outputs": [
        {
          "internalType": "uint256",
          "name": "",
          "type": "uint256"
        }
      ],
      "stateMutability": "view",
      "type": "function"
    },
    {
      "inputs": [
        {
          "internalType": "address",
          "name": "from",
          "type": "address"
        },
        {
          "internalType": "address",
          "name": "to",
          "type": "address"
        },
        {
          "internalType": "uint256",
          "name": "tokenId",
          "type": "uint256"
        }
      ],
      "name": "transferFrom",
      "outputs": [],
      "stateMutability": "nonpayable",
      "type": "function"
    },
    {
      "inputs": [
        {
          "internalType": "address",
          "name": "newOwner",
          "type": "address"
        }
      ],
      "name": "transferOwnership",
      "outputs": [],
      "stateMutability": "nonpayable",
      "type": "function"
    }
  ],
  "bytecode": "0x60806040526103e8600c556002600d556040518060400160405280600581526020017f2e6a736f6e000000000000000000000000000000000000000000000000000000815250600e90805190602001906200005c9291906200030b565b503480156200006a57600080fd5b5060405162003fd238038062003fd283398181016040528101906200009091906200042d565b6040518060400160405280600b81526020017f42656e6a616d696e4269740000000000000000000000000000000000000000008152506040518060400160405280600481526020017f42495453000000000000000000000000000000000000000000000000000000008152508160009080519060200190620001149291906200030b565b5080600190805190602001906200012d9291906200030b565b50505062000150620001446200016860201b60201c565b6200017060201b60201c565b62000161816200023660201b60201c565b5062000665565b600033905090565b6000600b60009054906101000a900473ffffffffffffffffffffffffffffffffffffffff16905081600b60006101000a81548173ffffffffffffffffffffffffffffffffffffffff021916908373ffffffffffffffffffffffffffffffffffffffff1602179055508173ffffffffffffffffffffffffffffffffffffffff168173ffffffffffffffffffffffffffffffffffffffff167f8be0079c531659141344cd1fd0a4f28419497f9722a3daafe3b4186f6b6457e060405160405180910390a35050565b620002466200016860201b60201c565b73ffffffffffffffffffffffffffffffffffffffff166200026c620002e160201b60201c565b73ffffffffffffffffffffffffffffffffffffffff1614620002c5576040517f08c379a0000000000000000000000000000000000000000000000000000000008152600401620002bc9062000499565b60405180910390fd5b80600f9080519060200190620002dd9291906200030b565b5050565b6000600b60009054906101000a900473ffffffffffffffffffffffffffffffffffffffff16905090565b828054620003199062000561565b90600052602060002090601f0160209004810192826200033d576000855562000389565b82601f106200035857805160ff191683800117855562000389565b8280016001018555821562000389579182015b82811115620003885782518255916020019190600101906200036b565b5b5090506200039891906200039c565b5090565b5b80821115620003b75760008160009055506001016200039d565b5090565b6000620003d2620003cc84620004e4565b620004bb565b905082815260208101848484011115620003eb57600080fd5b620003f88482856200052b565b509392505050565b600082601f8301126200041257600080fd5b815162000424848260208601620003bb565b91505092915050565b6000602082840312156200044057600080fd5b600082015167ffffffffffffffff8111156200045b57600080fd5b620004698482850162000400565b91505092915050565b6000620004816020836200051a565b91506200048e826200063c565b602082019050919050565b60006020820190508181036000830152620004b48162000472565b9050919050565b6000620004c7620004da565b9050620004d5828262000597565b919050565b6000604051905090565b600067ffffffffffffffff821115620005025762000501620005fc565b5b6200050d826200062b565b9050602081019050919050565b600082825260208201905092915050565b60005b838110156200054b5780820151818401526020810190506200052e565b838111156200055b576000848401525b50505050565b600060028204905060018216806200057a57607f821691505b60208210811415620005915762000590620005cd565b5b50919050565b620005a2826200062b565b810181811067ffffffffffffffff82111715620005c457620005c3620005fc565b5b80604052505050565b7f4e487b7100000000000000000000000000000000000000000000000000000000600052602260045260246000fd5b7f4e487b7100000000000000000000000000000000000000000000000000000000600052604160045260246000fd5b6000601f19601f8301169050919050565b7f4f776e61626c653a2063616c6c6572206973206e6f7420746865206f776e6572600082015250565b61395d80620006756000396000f3fe608060405234801561001057600080fd5b50600436106101735760003560e01c80636c0360eb116100de578063a22cb46511610097578063c87b56dd11610071578063c87b56dd14610438578063d5abeb0114610468578063e985e9c514610486578063f2fde38b146104b657610173565b8063a22cb465146103e2578063b88d4fde146103fe578063c66828621461041a57610173565b80636c0360eb1461033257806370a0823114610350578063715018a6146103805780638da5cb5b1461038a57806395d89b41146103a8578063a1448194146103c657610173565b806323b872dd1161013057806323b872dd1461024e5780632f745c591461026a57806342842e0e1461029a5780634f6ccce7146102b657806355f804b3146102e65780636352211e1461030257610173565b806301ffc9a71461017857806306fdde03146101a8578063081812fc146101c6578063095ea7b3146101f657806318160ddd14610212578063239c70ae14610230575b600080fd5b610192600480360381019061018d919061282a565b6104d2565b60405161019f9190612d43565b60405180910390f35b6101b06104e4565b6040516101bd9190612d5e565b60405180910390f35b6101e060048036038101906101db91906128bd565b610576565b6040516101ed9190612cdc565b60405180910390f35b610210600480360381019061020b91906127ee565b6105fb565b005b61021a610713565b6040516102279190612fc0565b60405180910390f35b610238610720565b6040516102459190612fc0565b60405180910390f35b610268600480360381019061026391906126e8565b610726565b005b610284600480360381019061027f91906127ee565b610786565b6040516102919190612fc0565b60405180910390f35b6102b460048036038101906102af91906126e8565b61082b565b005b6102d060048036038101906102cb91906128bd565b61084b565b6040516102dd9190612fc0565b60405180910390f35b61030060048036038101906102fb919061287c565b6108e2565b005b61031c600480360381019061031791906128bd565b610978565b6040516103299190612cdc565b60405180910390f35b61033a610a2a565b6040516103479190612d5e565b60405180910390f35b61036a60048036038101906103659190612683565b610ab8565b6040516103779190612fc0565b60405180910390f35b610388610b70565b005b610392610bf8565b60405161039f9190612cdc565b60405180910390f35b6103b0610c22565b6040516103bd9190612d5e565b60405180910390f35b6103e060048036038101906103db91906127ee565b610cb4565b005b6103fc60048036038101906103f791906127b2565b610db6565b005b61041860048036038101906104139190612737565b610f37565b005b610422610f99565b60405161042f9190612d5e565b60405180910390f35b610452600480360381019061044d91906128bd565b611027565b60405161045f9190612d5e565b60405180910390f35b6104706110d1565b60405161047d9190612fc0565b60405180910390f35b6104a0600480360381019061049b91906126ac565b6110d7565b6040516104ad9190612d43565b60405180910390f35b6104d060048036038101906104cb9190612683565b61116b565b005b60006104dd82611263565b9050919050565b6060600080546104f39061322b565b80601f016020809104026020016040519081016040528092919081815260200182805461051f9061322b565b801561056c5780601f106105415761010080835404028352916020019161056c565b820191906000526020600020905b81548152906001019060200180831161054f57829003601f168201915b5050505050905090565b6000610581826112dd565b6105c0576040517f08c379a00000000000000000000000000000000000000000000000000000000081526004016105b790612ee0565b60405180910390fd5b6004600083815260200190815260200160002060009054906101000a900473ffffffffffffffffffffffffffffffffffffffff169050919050565b600061060682610978565b90508073ffffffffffffffffffffffffffffffffffffffff168373ffffffffffffffffffffffffffffffffffffffff161415610677576040517f08c379a000000000000000000000000000000000000000000000000000000000815260040161066e90612f60565b60405180910390fd5b8073ffffffffffffffffffffffffffffffffffffffff16610696611349565b73ffffffffffffffffffffffffffffffffffffffff1614806106c557506106c4816106bf611349565b6110d7565b5b610704576040517f08c379a00000000000000000000000000000000000000000000000000000000081526004016106fb90612e60565b60405180910390fd5b61070e8383611351565b505050565b6000600880549050905090565b600d5481565b610737610731611349565b8261140a565b610776576040517f08c379a000000000000000000000000000000000000000000000000000000000815260040161076d90612f80565b60405180910390fd5b6107818383836114e8565b505050565b600061079183610ab8565b82106107d2576040517f08c379a00000000000000000000000000000000000000000000000000000000081526004016107c990612d80565b60405180910390fd5b600660008473ffffffffffffffffffffffffffffffffffffffff1673ffffffffffffffffffffffffffffffffffffffff168152602001908152602001600020600083815260200190815260200160002054905092915050565b61084683838360405180602001604052806000815250610f37565b505050565b6000610855610713565b8210610896576040517f08c379a000000000000000000000000000000000000000000000000000000000815260040161088d90612fa0565b60405180910390fd5b600882815481106108d0577f4e487b7100000000000000000000000000000000000000000000000000000000600052603260045260246000fd5b90600052602060002001549050919050565b6108ea611349565b73ffffffffffffffffffffffffffffffffffffffff16610908610bf8565b73ffffffffffffffffffffffffffffffffffffffff161461095e576040517f08c379a000000000000000000000000000000000000000000000000000000000815260040161095590612f00565b60405180910390fd5b80600f90805190602001906109749291906124a7565b5050565b6000806002600084815260200190815260200160002060009054906101000a900473ffffffffffffffffffffffffffffffffffffffff169050600073ffffffffffffffffffffffffffffffffffffffff168173ffffffffffffffffffffffffffffffffffffffff161415610a21576040517f08c379a0000000000000000000000000000000000000000000000000000000008152600401610a1890612ea0565b60405180910390fd5b80915050919050565b600f8054610a379061322b565b80601f0160208091040260200160405190810160405280929190818152602001828054610a639061322b565b8015610ab05780601f10610a8557610100808354040283529160200191610ab0565b820191906000526020600020905b815481529060010190602001808311610a9357829003601f168201915b505050505081565b60008073ffffffffffffffffffffffffffffffffffffffff168273ffffffffffffffffffffffffffffffffffffffff161415610b29576040517f08c379a0000000000000000000000000000000000000000000000000000000008152600401610b2090612e80565b60405180910390fd5b600360008373ffffffffffffffffffffffffffffffffffffffff1673ffffffffffffffffffffffffffffffffffffffff168152602001908152602001600020549050919050565b610b78611349565b73ffffffffffffffffffffffffffffffffffffffff16610b96610bf8565b73ffffffffffffffffffffffffffffffffffffffff1614610bec576040517f08c379a0000000000000000000000000000000000000000000000000000000008152600401610be390612f00565b60405180910390fd5b610bf66000611744565b565b6000600b60009054906101000a900473ffffffffffffffffffffffffffffffffffffffff16905090565b606060018054610c319061322b565b80601f0160208091040260200160405190810160405280929190818152602001828054610c5d9061322b565b8015610caa5780601f10610c7f57610100808354040283529160200191610caa565b820191906000526020600020905b815481529060010190602001808311610c8d57829003601f168201915b5050505050905090565b610cbc611349565b73ffffffffffffffffffffffffffffffffffffffff16610cda610bf8565b73ffffffffffffffffffffffffffffffffffffffff1614610d30576040517f08c379a0000000000000000000000000000000000000000000000000000000008152600401610d2790612f00565b60405180910390fd5b6000610d3a610713565b905060008211610d4957600080fd5b600d54821115610d5857600080fd5b600c548282610d6791906130ba565b1115610d7257600080fd5b6000600190505b828111610db057610d9384610d8e601061180a565b611818565b610d9d6010611836565b8080610da89061328e565b915050610d79565b50505050565b610dbe611349565b73ffffffffffffffffffffffffffffffffffffffff168273ffffffffffffffffffffffffffffffffffffffff161415610e2c576040517f08c379a0000000000000000000000000000000000000000000000000000000008152600401610e2390612e20565b60405180910390fd5b8060056000610e39611349565b73ffffffffffffffffffffffffffffffffffffffff1673ffffffffffffffffffffffffffffffffffffffff16815260200190815260200160002060008473ffffffffffffffffffffffffffffffffffffffff1673ffffffffffffffffffffffffffffffffffffffff16815260200190815260200160002060006101000a81548160ff0219169083151502179055508173ffffffffffffffffffffffffffffffffffffffff16610ee6611349565b73ffffffffffffffffffffffffffffffffffffffff167f17307eab39ab6107e8899845ad3d59bd9653f200f220920489ca2b5937696c3183604051610f2b9190612d43565b60405180910390a35050565b610f48610f42611349565b8361140a565b610f87576040517f08c379a0000000000000000000000000000000000000000000000000000000008152600401610f7e90612f80565b60405180910390fd5b610f938484848461184c565b50505050565b600e8054610fa69061322b565b80601f0160208091040260200160405190810160405280929190818152602001828054610fd29061322b565b801561101f5780601f10610ff45761010080835404028352916020019161101f565b820191906000526020600020905b81548152906001019060200180831161100257829003601f168201915b505050505081565b6060611032826112dd565b611071576040517f08c379a000000000000000000000000000000000000000000000000000000000815260040161106890612f40565b60405180910390fd5b600061107b6118a8565b9050600081511161109b57604051806020016040528060008152506110c9565b806110a58461193a565b600e6040516020016110b993929190612cab565b6040516020818303038152906040525b915050919050565b600c5481565b6000600560008473ffffffffffffffffffffffffffffffffffffffff1673ffffffffffffffffffffffffffffffffffffffff16815260200190815260200160002060008373ffffffffffffffffffffffffffffffffffffffff1673ffffffffffffffffffffffffffffffffffffffff16815260200190815260200160002060009054906101000a900460ff16905092915050565b611173611349565b73ffffffffffffffffffffffffffffffffffffffff16611191610bf8565b73ffffffffffffffffffffffffffffffffffffffff16146111e7576040517f08c379a00000000000000000000000000000000000000000000000000000000081526004016111de90612f00565b60405180910390fd5b600073ffffffffffffffffffffffffffffffffffffffff168173ffffffffffffffffffffffffffffffffffffffff161415611257576040517f08c379a000000000000000000000000000000000000000000000000000000000815260040161124e90612dc0565b60405180910390fd5b61126081611744565b50565b60007f780e9d63000000000000000000000000000000000000000000000000000000007bffffffffffffffffffffffffffffffffffffffffffffffffffffffff1916827bffffffffffffffffffffffffffffffffffffffffffffffffffffffff191614806112d657506112d582611ae7565b5b9050919050565b60008073ffffffffffffffffffffffffffffffffffffffff166002600084815260200190815260200160002060009054906101000a900473ffffffffffffffffffffffffffffffffffffffff1673ffffffffffffffffffffffffffffffffffffffff1614159050919050565b600033905090565b816004600083815260200190815260200160002060006101000a81548173ffffffffffffffffffffffffffffffffffffffff021916908373ffffffffffffffffffffffffffffffffffffffff160217905550808273ffffffffffffffffffffffffffffffffffffffff166113c483610978565b73ffffffffffffffffffffffffffffffffffffffff167f8c5be1e5ebec7d5bd14f71427d1e84f3dd0314c0f7b2291e5b200ac8c7c3b92560405160405180910390a45050565b6000611415826112dd565b611454576040517f08c379a000000000000000000000000000000000000000000000000000000000815260040161144b90612e40565b60405180910390fd5b600061145f83610978565b90508073ffffffffffffffffffffffffffffffffffffffff168473ffffffffffffffffffffffffffffffffffffffff1614806114ce57508373ffffffffffffffffffffffffffffffffffffffff166114b684610576565b73ffffffffffffffffffffffffffffffffffffffff16145b806114df57506114de81856110d7565b5b91505092915050565b8273ffffffffffffffffffffffffffffffffffffffff1661150882610978565b73ffffffffffffffffffffffffffffffffffffffff161461155e576040517f08c379a000000000000000000000000000000000000000000000000000000000815260040161155590612f20565b60405180910390fd5b600073ffffffffffffffffffffffffffffffffffffffff168273ffffffffffffffffffffffffffffffffffffffff1614156115ce576040517f08c379a00000000000000000000000000000000000000000000000000000000081526004016115c590612e00565b60405180910390fd5b6115d9838383611bc9565b6115e4600082611351565b6001600360008573ffffffffffffffffffffffffffffffffffffffff1673ffffffffffffffffffffffffffffffffffffffff16815260200190815260200160002060008282546116349190613141565b925050819055506001600360008473ffffffffffffffffffffffffffffffffffffffff1673ffffffffffffffffffffffffffffffffffffffff168152602001908152602001600020600082825461168b91906130ba565b92505081905550816002600083815260200190815260200160002060006101000a81548173ffffffffffffffffffffffffffffffffffffffff021916908373ffffffffffffffffffffffffffffffffffffffff160217905550808273ffffffffffffffffffffffffffffffffffffffff168473ffffffffffffffffffffffffffffffffffffffff167fddf252ad1be2c89b69c2b068fc378daa952ba7f163c4a11628f55a4df523b3ef60405160405180910390a4505050565b6000600b60009054906101000a900473ffffffffffffffffffffffffffffffffffffffff16905081600b60006101000a81548173ffffffffffffffffffffffffffffffffffffffff021916908373ffffffffffffffffffffffffffffffffffffffff1602179055508173ffffffffffffffffffffffffffffffffffffffff168173ffffffffffffffffffffffffffffffffffffffff167f8be0079c531659141344cd1fd0a4f28419497f9722a3daafe3b4186f6b6457e060405160405180910390a35050565b600081600001549050919050565b611832828260405180602001604052806000815250611bd9565b5050565b6001816000016000828254019250508190555050565b6118578484846114e8565b61186384848484611c34565b6118a2576040517f08c379a000000000000000000000000000000000000000000000000000000000815260040161189990612da0565b60405180910390fd5b50505050565b6060600f80546118b79061322b565b80601f01602080910402602001604051908101604052809291908181526020018280546118e39061322b565b80156119305780601f1061190557610100808354040283529160200191611930565b820191906000526020600020905b81548152906001019060200180831161191357829003601f168201915b5050505050905090565b60606000821415611982576040518060400160405280600181526020017f30000000000000000000000000000000000000000000000000000000000000008152509050611ae2565b600082905060005b600082146119b457808061199d9061328e565b915050600a826119ad9190613110565b915061198a565b60008167ffffffffffffffff8111156119f6577f4e487b7100000000000000000000000000000000000000000000000000000000600052604160045260246000fd5b6040519080825280601f01601f191660200182016040528015611a285781602001600182028036833780820191505090505b5090505b60008514611adb57600182611a419190613141565b9150600a85611a5091906132d7565b6030611a5c91906130ba565b60f81b818381518110611a98577f4e487b7100000000000000000000000000000000000000000000000000000000600052603260045260246000fd5b60200101907effffffffffffffffffffffffffffffffffffffffffffffffffffffffffffff1916908160001a905350600a85611ad49190613110565b9450611a2c565b8093505050505b919050565b60007f80ac58cd000000000000000000000000000000000000000000000000000000007bffffffffffffffffffffffffffffffffffffffffffffffffffffffff1916827bffffffffffffffffffffffffffffffffffffffffffffffffffffffff19161480611bb257507f5b5e139f000000000000000000000000000000000000000000000000000000007bffffffffffffffffffffffffffffffffffffffffffffffffffffffff1916827bffffffffffffffffffffffffffffffffffffffffffffffffffffffff1916145b80611bc25750611bc182611dcb565b5b9050919050565b611bd4838383611e35565b505050565b611be38383611f49565b611bf06000848484611c34565b611c2f576040517f08c379a0000000000000000000000000000000000000000000000000000000008152600401611c2690612da0565b60405180910390fd5b505050565b6000611c558473ffffffffffffffffffffffffffffffffffffffff16612117565b15611dbe578373ffffffffffffffffffffffffffffffffffffffff1663150b7a02611c7e611349565b8786866040518563ffffffff1660e01b8152600401611ca09493929190612cf7565b602060405180830381600087803b158015611cba57600080fd5b505af1925050508015611ceb57506040513d601f19601f82011682018060405250810190611ce89190612853565b60015b611d6e573d8060008114611d1b576040519150601f19603f3d011682016040523d82523d6000602084013e611d20565b606091505b50600081511415611d66576040517f08c379a0000000000000000000000000000000000000000000000000000000008152600401611d5d90612da0565b60405180910390fd5b805181602001fd5b63150b7a0260e01b7bffffffffffffffffffffffffffffffffffffffffffffffffffffffff1916817bffffffffffffffffffffffffffffffffffffffffffffffffffffffff191614915050611dc3565b600190505b949350505050565b60007f01ffc9a7000000000000000000000000000000000000000000000000000000007bffffffffffffffffffffffffffffffffffffffffffffffffffffffff1916827bffffffffffffffffffffffffffffffffffffffffffffffffffffffff1916149050919050565b611e4083838361212a565b600073ffffffffffffffffffffffffffffffffffffffff168373ffffffffffffffffffffffffffffffffffffffff161415611e8357611e7e8161212f565b611ec2565b8173ffffffffffffffffffffffffffffffffffffffff168373ffffffffffffffffffffffffffffffffffffffff1614611ec157611ec08382612178565b5b5b600073ffffffffffffffffffffffffffffffffffffffff168273ffffffffffffffffffffffffffffffffffffffff161415611f0557611f00816122e5565b611f44565b8273ffffffffffffffffffffffffffffffffffffffff168273ffffffffffffffffffffffffffffffffffffffff1614611f4357611f428282612428565b5b5b505050565b600073ffffffffffffffffffffffffffffffffffffffff168273ffffffffffffffffffffffffffffffffffffffff161415611fb9576040517f08c379a0000000000000000000000000000000000000000000000000000000008152600401611fb090612ec0565b60405180910390fd5b611fc2816112dd565b15612002576040517f08c379a0000000000000000000000000000000000000000000000000000000008152600401611ff990612de0565b60405180910390fd5b61200e60008383611bc9565b6001600360008473ffffffffffffffffffffffffffffffffffffffff1673ffffffffffffffffffffffffffffffffffffffff168152602001908152602001600020600082825461205e91906130ba565b92505081905550816002600083815260200190815260200160002060006101000a81548173ffffffffffffffffffffffffffffffffffffffff021916908373ffffffffffffffffffffffffffffffffffffffff160217905550808273ffffffffffffffffffffffffffffffffffffffff16600073ffffffffffffffffffffffffffffffffffffffff167fddf252ad1be2c89b69c2b068fc378daa952ba7f163c4a11628f55a4df523b3ef60405160405180910390a45050565b600080823b905060008111915050919050565b505050565b6008805490506009600083815260200190815260200160002081905550600881908060018154018082558091505060019003906000526020600020016000909190919091505550565b6000600161218584610ab8565b61218f9190613141565b9050600060076000848152602001908152602001600020549050818114612274576000600660008673ffffffffffffffffffffffffffffffffffffffff1673ffffffffffffffffffffffffffffffffffffffff168152602001908152602001600020600084815260200190815260200160002054905080600660008773ffffffffffffffffffffffffffffffffffffffff1673ffffffffffffffffffffffffffffffffffffffff168152602001908152602001600020600084815260200190815260200160002081905550816007600083815260200190815260200160002081905550505b6007600084815260200190815260200160002060009055600660008573ffffffffffffffffffffffffffffffffffffffff1673ffffffffffffffffffffffffffffffffffffffff16815260200190815260200160002060008381526020019081526020016000206000905550505050565b600060016008805490506122f99190613141565b905060006009600084815260200190815260200160002054905060006008838154811061234f577f4e487b7100000000000000000000000000000000000000000000000000000000600052603260045260246000fd5b906000526020600020015490508060088381548110612397577f4e487b7100000000000000000000000000000000000000000000000000000000600052603260045260246000fd5b90600052602060002001819055508160096000838152602001908152602001600020819055506009600085815260200190815260200160002060009055600880548061240c577f4e487b7100000000000000000000000000000000000000000000000000000000600052603160045260246000fd5b6001900381819060005260206000200160009055905550505050565b600061243383610ab8565b905081600660008573ffffffffffffffffffffffffffffffffffffffff1673ffffffffffffffffffffffffffffffffffffffff168152602001908152602001600020600083815260200190815260200160002081905550806007600084815260200190815260200160002081905550505050565b8280546124b39061322b565b90600052602060002090601f0160209004810192826124d5576000855561251c565b82601f106124ee57805160ff191683800117855561251c565b8280016001018555821561251c579182015b8281111561251b578251825591602001919060010190612500565b5b509050612529919061252d565b5090565b5b8082111561254657600081600090555060010161252e565b5090565b600061255d61255884613000565b612fdb565b90508281526020810184848401111561257557600080fd5b6125808482856131e9565b509392505050565b600061259b61259684613031565b612fdb565b9050828152602081018484840111156125b357600080fd5b6125be8482856131e9565b509392505050565b6000813590506125d5816138cb565b92915050565b6000813590506125ea816138e2565b92915050565b6000813590506125ff816138f9565b92915050565b600081519050612614816138f9565b92915050565b600082601f83011261262b57600080fd5b813561263b84826020860161254a565b91505092915050565b600082601f83011261265557600080fd5b8135612665848260208601612588565b91505092915050565b60008135905061267d81613910565b92915050565b60006020828403121561269557600080fd5b60006126a3848285016125c6565b91505092915050565b600080604083850312156126bf57600080fd5b60006126cd858286016125c6565b92505060206126de858286016125c6565b9150509250929050565b6000806000606084860312156126fd57600080fd5b600061270b868287016125c6565b935050602061271c868287016125c6565b925050604061272d8682870161266e565b9150509250925092565b6000806000806080858703121561274d57600080fd5b600061275b878288016125c6565b945050602061276c878288016125c6565b935050604061277d8782880161266e565b925050606085013567ffffffffffffffff81111561279a57600080fd5b6127a68782880161261a565b91505092959194509250565b600080604083850312156127c557600080fd5b60006127d3858286016125c6565b92505060206127e4858286016125db565b9150509250929050565b6000806040838503121561280157600080fd5b600061280f858286016125c6565b92505060206128208582860161266e565b9150509250929050565b60006020828403121561283c57600080fd5b600061284a848285016125f0565b91505092915050565b60006020828403121561286557600080fd5b600061287384828501612605565b91505092915050565b60006020828403121561288e57600080fd5b600082013567ffffffffffffffff8111156128a857600080fd5b6128b484828501612644565b91505092915050565b6000602082840312156128cf57600080fd5b60006128dd8482850161266e565b91505092915050565b6128ef81613175565b82525050565b6128fe81613187565b82525050565b600061290f82613077565b612919818561308d565b93506129298185602086016131f8565b612932816133c4565b840191505092915050565b600061294882613082565b612952818561309e565b93506129628185602086016131f8565b61296b816133c4565b840191505092915050565b600061298182613082565b61298b81856130af565b935061299b8185602086016131f8565b80840191505092915050565b600081546129b48161322b565b6129be81866130af565b945060018216600081146129d957600181146129ea57612a1d565b60ff19831686528186019350612a1d565b6129f385613062565b60005b83811015612a15578154818901526001820191506020810190506129f6565b838801955050505b50505092915050565b6000612a33602b8361309e565b9150612a3e826133d5565b604082019050919050565b6000612a5660328361309e565b9150612a6182613424565b604082019050919050565b6000612a7960268361309e565b9150612a8482613473565b604082019050919050565b6000612a9c601c8361309e565b9150612aa7826134c2565b602082019050919050565b6000612abf60248361309e565b9150612aca826134eb565b604082019050919050565b6000612ae260198361309e565b9150612aed8261353a565b602082019050919050565b6000612b05602c8361309e565b9150612b1082613563565b604082019050919050565b6000612b2860388361309e565b9150612b33826135b2565b604082019050919050565b6000612b4b602a8361309e565b9150612b5682613601565b604082019050919050565b6000612b6e60298361309e565b9150612b7982613650565b604082019050919050565b6000612b9160208361309e565b9150612b9c8261369f565b602082019050919050565b6000612bb4602c8361309e565b9150612bbf826136c8565b604082019050919050565b6000612bd760208361309e565b9150612be282613717565b602082019050919050565b6000612bfa60298361309e565b9150612c0582613740565b604082019050919050565b6000612c1d602f8361309e565b9150612c288261378f565b604082019050919050565b6000612c4060218361309e565b9150612c4b826137de565b604082019050919050565b6000612c6360318361309e565b9150612c6e8261382d565b604082019050919050565b6000612c86602c8361309e565b9150612c918261387c565b604082019050919050565b612ca5816131df565b82525050565b6000612cb78286612976565b9150612cc38285612976565b9150612ccf82846129a7565b9150819050949350505050565b6000602082019050612cf160008301846128e6565b92915050565b6000608082019050612d0c60008301876128e6565b612d1960208301866128e6565b612d266040830185612c9c565b8181036060830152612d388184612904565b905095945050505050565b6000602082019050612d5860008301846128f5565b92915050565b60006020820190508181036000830152612d78818461293d565b905092915050565b60006020820190508181036000830152612d9981612a26565b9050919050565b60006020820190508181036000830152612db981612a49565b9050919050565b60006020820190508181036000830152612dd981612a6c565b9050919050565b60006020820190508181036000830152612df981612a8f565b9050919050565b60006020820190508181036000830152612e1981612ab2565b9050919050565b60006020820190508181036000830152612e3981612ad5565b9050919050565b60006020820190508181036000830152612e5981612af8565b9050919050565b60006020820190508181036000830152612e7981612b1b565b9050919050565b60006020820190508181036000830152612e9981612b3e565b9050919050565b60006020820190508181036000830152612eb981612b61565b9050919050565b60006020820190508181036000830152612ed981612b84565b9050919050565b60006020820190508181036000830152612ef981612ba7565b9050919050565b60006020820190508181036000830152612f1981612bca565b9050919050565b60006020820190508181036000830152612f3981612bed565b9050919050565b60006020820190508181036000830152612f5981612c10565b9050919050565b60006020820190508181036000830152612f7981612c33565b9050919050565b60006020820190508181036000830152612f9981612c56565b9050919050565b60006020820190508181036000830152612fb981612c79565b9050919050565b6000602082019050612fd56000830184612c9c565b92915050565b6000612fe5612ff6565b9050612ff1828261325d565b919050565b6000604051905090565b600067ffffffffffffffff82111561301b5761301a613395565b5b613024826133c4565b9050602081019050919050565b600067ffffffffffffffff82111561304c5761304b613395565b5b613055826133c4565b9050602081019050919050565b60008190508160005260206000209050919050565b600081519050919050565b600081519050919050565b600082825260208201905092915050565b600082825260208201905092915050565b600081905092915050565b60006130c5826131df565b91506130d0836131df565b9250827fffffffffffffffffffffffffffffffffffffffffffffffffffffffffffffffff0382111561310557613104613308565b5b828201905092915050565b600061311b826131df565b9150613126836131df565b92508261313657613135613337565b5b828204905092915050565b600061314c826131df565b9150613157836131df565b92508282101561316a57613169613308565b5b828203905092915050565b6000613180826131bf565b9050919050565b60008115159050919050565b60007fffffffff0000000000000000000000000000000000000000000000000000000082169050919050565b600073ffffffffffffffffffffffffffffffffffffffff82169050919050565b6000819050919050565b82818337600083830152505050565b60005b838110156132165780820151818401526020810190506131fb565b83811115613225576000848401525b50505050565b6000600282049050600182168061324357607f821691505b6020821081141561325757613256613366565b5b50919050565b613266826133c4565b810181811067ffffffffffffffff8211171561328557613284613395565b5b80604052505050565b6000613299826131df565b91507fffffffffffffffffffffffffffffffffffffffffffffffffffffffffffffffff8214156132cc576132cb613308565b5b600182019050919050565b60006132e2826131df565b91506132ed836131df565b9250826132fd576132fc613337565b5b828206905092915050565b7f4e487b7100000000000000000000000000000000000000000000000000000000600052601160045260246000fd5b7f4e487b7100000000000000000000000000000000000000000000000000000000600052601260045260246000fd5b7f4e487b7100000000000000000000000000000000000000000000000000000000600052602260045260246000fd5b7f4e487b7100000000000000000000000000000000000000000000000000000000600052604160045260246000fd5b6000601f19601f8301169050919050565b7f455243373231456e756d657261626c653a206f776e657220696e646578206f7560008201527f74206f6620626f756e6473000000000000000000000000000000000000000000602082015250565b7f4552433732313a207472616e7366657220746f206e6f6e20455243373231526560008201527f63656976657220696d706c656d656e7465720000000000000000000000000000602082015250565b7f4f776e61626c653a206e6577206f776e657220697320746865207a65726f206160008201527f6464726573730000000000000000000000000000000000000000000000000000602082015250565b7f4552433732313a20746f6b656e20616c7265616479206d696e74656400000000600082015250565b7f4552433732313a207472616e7366657220746f20746865207a65726f2061646460008201527f7265737300000000000000000000000000000000000000000000000000000000602082015250565b7f4552433732313a20617070726f766520746f2063616c6c657200000000000000600082015250565b7f4552433732313a206f70657261746f7220717565727920666f72206e6f6e657860008201527f697374656e7420746f6b656e0000000000000000000000000000000000000000602082015250565b7f4552433732313a20617070726f76652063616c6c6572206973206e6f74206f7760008201527f6e6572206e6f7220617070726f76656420666f7220616c6c0000000000000000602082015250565b7f4552433732313a2062616c616e636520717565727920666f7220746865207a6560008201527f726f206164647265737300000000000000000000000000000000000000000000602082015250565b7f4552433732313a206f776e657220717565727920666f72206e6f6e657869737460008201527f656e7420746f6b656e0000000000000000000000000000000000000000000000602082015250565b7f4552433732313a206d696e7420746f20746865207a65726f2061646472657373600082015250565b7f4552433732313a20617070726f76656420717565727920666f72206e6f6e657860008201527f697374656e7420746f6b656e0000000000000000000000000000000000000000602082015250565b7f4f776e61626c653a2063616c6c6572206973206e6f7420746865206f776e6572600082015250565b7f4552433732313a207472616e73666572206f6620746f6b656e2074686174206960008201527f73206e6f74206f776e0000000000000000000000000000000000000000000000602082015250565b7f4552433732314d657461646174613a2055524920717565727920666f72206e6f60008201527f6e6578697374656e7420746f6b656e0000000000000000000000000000000000602082015250565b7f4552433732313a20617070726f76616c20746f2063757272656e74206f776e6560008201527f7200000000000000000000000000000000000000000000000000000000000000602082015250565b7f4552433732313a207472616e736665722063616c6c6572206973206e6f74206f60008201527f776e6572206e6f7220617070726f766564000000000000000000000000000000602082015250565b7f455243373231456e756d657261626c653a20676c6f62616c20696e646578206f60008201527f7574206f6620626f756e64730000000000000000000000000000000000000000602082015250565b6138d481613175565b81146138df57600080fd5b50565b6138eb81613187565b81146138f657600080fd5b50565b61390281613193565b811461390d57600080fd5b50565b613919816131df565b811461392457600080fd5b5056fea2646970667358221220519568c7a90db551a42fb288652b252df823e89adb861610458b70d6d96b400564736f6c63430008020033",
  "linkReferences": {},
  "deployedLinkReferences": {}
}